:0A0000000C942A000C9400000C94EC
:10000A0000000C9400000C9400000C9400000C9466
:10001A0000000C9400000C9400000C9400000C9456
:10002A0000000C9400000C9400000C9400000C9446
:10003A0000000C9400000C9400000C9400000C9436
:10004A0000000C9400000C940000F894EE27ECBB1E
:10005A00F1E0FBBFEBBFE5BF8DE0A2E0BB27ED936C
:10006A008A95E9F780E098E0A0E6ED930197E9F731
:10007A00EFE5EDBFE8E0EEBFC0E6D2E00C943C014C
:10008A00E0E0EABBEBBBE7BBE8BBEFEFE4BBE0E0D9
:10009A00E5BBEFEFE1BBE0E0E2BBE3BFE2BFECBFF1
:1000AA00EFBDEEBDEDBDECBDE7BDE6BDEBBDEABD06
:1000BA00E9BDE8BDE2BDE5BDE4BDE3BDE9BFE5BF1D
:1000CA00E4BFEAB9E0E8E8B9E0E0E0BFE6B9EDB9D3
:1000DA00E6BF089535D149F4A89AA998AA98E0E00C
:1000EA00E0936002E093610215C0E130A0E0FA07F4
:1000FA0021F4A898A99AAA980DC0E230A0E0FA07BC
:10010A0049F4A898A998AA9AE1E0F0E0E09360027D
:10011A00F09361025FC014D141F4AB9AAC98AD98E8
:10012A00E2E6F2E0A0E0B0E013C0E130A0E0FA07B6
:10013A0021F4AB98AC9AAD980DC0E230A0E0FA0772
:10014A0049F4AB98AC98AD9AE2E6F2E0A1E0B0E0EF
:10015A00A083B1833FC0F4D041F4909A91989298C9
:10016A00E4E6F2E0A0E0B0E013C0E130A0E0FA0774
:10017A0021F49098919A92980DC0E230A0E0FA0783
:10018A0049F490989198929AE4E6F2E0A1E0B0E0FE
:10019A00A083B1831FC0D4D041F4939A94989598C0
:1001AA00E6E6F2E0A0E0B0E013C0E130A0E0FA0732
:1001BA0021F49398949A95980DC0E230A0E0FA073A
:1001CA0049F493989498959AE6E6F2E0A1E0B0E0B3
:1001DA00A083B183229608950E94E70100E010E00F
:1001EA000430E0E01E07A4F4F801A0E6B2E0EE0F46
:1001FA00FF1FAE0FBF1F0E94E301E130A0E0FA0724
:10020A0021F421E030E0A80103C00F5F1F4FE8CFBF
:10021A00E1E0F0E0E217F30731F5FA01309731F443
:10022A00A1E0B0E057DF92D055DF1DC0E130A0E079
:10023A00FA0731F4A1E0B0E06EDF88D06CDF13C0BA
:10024A00E230A0E0FA0731F4A1E0B0E084DF7ED02A
:10025A0082DF09C0E330A0E0FA0729F4A1E0B0E0A8
:10026A009ADF74D098DF0E94EE012696089500E086
:10027A0010E006DF002E012A11F428D003C06DD049
:10028A0009F40AD06AD019F4E0E0F0E002C0E1E033
:10029A00F0E08F01EFCFFFCF979A969863D0CC9B6F
:1002AA0014C0C89903C06AD015DF0EC0C99903C02B
:1002BA0065D031DF09C0CA9903C060D04CDF04C0E1
:1002CA00CB9902C05BD067DFEACF08951A930A93ED
:1002DA0000E010E09798969A45D0CC9903C00FEFAA
:1002EA001FEF2BC0002E012A39F450D0F3DE55D06F
:1002FA00F1DE0F5F1F4F20C030D039F447D00BDF3B
:10030A004CD009DF0F5F1F4F17C0E2E0F0E0E017A3
:10031A00F10739F43BD01FDF40D01DDF0F5F1F4FBD
:10032A000BC0E3E0F0E0E017F10731F42FD033DF40
:10033A0034D031DF00E010E0D0CF0991199108954F
:10034A00BA93AA93E881F98130970895A8EEB3E0A9
:10035A000E94D901A0E0B0E00895E1E0F0E0E017E2
:10036A00F1070895A0E0B0E0B5DEA0E0B0E0D3DE8A
:10037A00A0E0B0E0F0DEA0E0B0E00DCF2DDFA8EE07
:10038A00B3E00E94D901A2E0B0E00895A8EEB3E07C
:10039A000E94D901A2E0B0E00895A8EBBBE00E9458
:1003AA00D901A0E0B0E00895109639F0A89588EB3D
:1003BA009BE00197F1F71197C9F70895ED91FC9128
:1003CA00119708955A934A933A932A931A930A9340
:1003DA0008955D814C813B812A81198108810895A4
:00000001FF
