:0A0000000C942A000C9400000C94EC
:10000A0000000C9400000C9400000C9400000C9466
:10001A0000000C9400000C9400000C9400000C9456
:10002A0000000C9400000C9400000C9400000C9446
:10003A0000000C9400000C9400000C9400000C9436
:10004A0000000C9400000C940000F894EE27ECBB1E
:10005A00F1E0FBBFEBBFE5BF8DE0A2E0BB27ED936C
:10006A008A95E9F780E098E0A0E6ED930197E9F731
:10007A00EFE5EDBFE8E0EEBFC0E6D2E00C943C014C
:10008A00E0E0EABBEBBBE7BBE8BBEFEFE4BBE0E0D9
:10009A00E5BBEFEFE1BBE0E0E2BBE3BFE2BFECBFF1
:1000AA00EFBDEEBDEDBDECBDE7BDE6BDEBBDEABD06
:1000BA00E9BDE8BDE2BDE5BDE4BDE3BDE9BFE5BF1D
:1000CA00E4BFEAB9E0E8E8B9E0E0E0BFE6B9EDB9D3
:1000DA00E6BF08953DD149F4A89AA998AA98E0E004
:1000EA00E0936002E093610215C0E130A0E0FA07F4
:1000FA0021F4A898A99AAA980DC0E230A0E0FA07BC
:10010A0049F4A898A998AA9AE1E0F0E0E09360027D
:10011A00F09361025FC01CD141F4AB9AAC98AD98E0
:10012A00E2E6F2E0A0E0B0E013C0E130A0E0FA07B6
:10013A0021F4AB98AC9AAD980DC0E230A0E0FA0772
:10014A0049F4AB98AC98AD9AE2E6F2E0A1E0B0E0EF
:10015A00A083B1833FC0FCD041F4909A91989298C1
:10016A00E4E6F2E0A0E0B0E013C0E130A0E0FA0774
:10017A0021F49098919A92980DC0E230A0E0FA0783
:10018A0049F490989198929AE4E6F2E0A1E0B0E0FE
:10019A00A083B1831FC0DCD041F4939A94989598B8
:1001AA00E6E6F2E0A0E0B0E013C0E130A0E0FA0732
:1001BA0021F49398949A95980DC0E230A0E0FA073A
:1001CA0049F493989498959AE6E6F2E0A1E0B0E0B3
:1001DA00A083B183229608950E94EF0100E010E007
:1001EA000430E0E01E07A4F4F801A0E6B2E0EE0F46
:1001FA00FF1FAE0FBF1F0E94EB01E130A0E0FA071C
:10020A0021F421E030E0A80103C00F5F1F4FE8CFBF
:10021A00E1E0F0E0E217F30731F5FA01309731F443
:10022A00A1E0B0E057DF9AD055DF1DC0E130A0E071
:10023A00FA0731F4A1E0B0E06EDF90D06CDF13C0B2
:10024A00E230A0E0FA0731F4A1E0B0E084DF86D022
:10025A0082DF09C0E330A0E0FA0729F4A1E0B0E0A8
:10026A009ADF7CD098DF0E94F6012696089500E076
:10027A0010E006DF002E012A11F42CD003C075D03D
:10028A0009F40AD072D019F4E0E0F0E002C0E1E02B
:10029A00F0E08F01EFCFFFCF979A6CD0CC9B14C0C0
:1002AA00C89903C073D016DF0EC0C99903C06ED0B7
:1002BA0032DF09C0CA9903C069D04DDF04C0CB99A7
:1002CA0002C064D068DFEACF9798A0EDB7E00E9439
:1002DA00E10108951A930A9300E010E0969A4AD031
:1002EA00CC9903C00FEF1FEF2BC0002E012A39F45F
:1002FA0055D0F0DE5AD0EEDE0F5F1F4F20C035D04A
:10030A0039F44CD008DF51D006DF0F5F1F4F17C0FA
:10031A00E2E0F0E0E017F10739F440D01CDF45D005
:10032A001ADF0F5F1F4F0BC0E3E0F0E0E017F107A1
:10033A0031F434D030DF39D02EDF00E010E0D0CFF6
:10034A009698A0EDB7E00E94E101099119910895EC
:10035A00BA93AA93E881F98130970895A8EEB3E099
:10036A000E94E101A0E0B0E00895E1E0F0E0E017CA
:10037A00F1070895A0E0B0E0ADDEA0E0B0E0CBDE8A
:10038A00A0E0B0E0E8DEA0E0B0E005CF25DFA8EE0F
:10039A00B3E00E94E101A2E0B0E00895A8EEB3E064
:1003AA000E94E101A2E0B0E00895A8EBBBE00E9440
:1003BA00E101A0E0B0E00895109639F0A89588EB25
:1003CA009BE00197F1F71197C9F70895ED91FC9118
:1003DA00119708955A934A933A932A931A930A9330
:1003EA0008955D814C813B812A8119810881089594
:00000001FF
