:060000000C942A000C9490
:1000060000000C9400000C9400000C9400000C946A
:1000160000000C9400000C9400000C9400000C945A
:1000260000000C9400000C9400000C9400000C944A
:1000360000000C9400000C9400000C9400000C943A
:1000460000000C9400000C9400000C940000F8943E
:10005600EE27ECBBF1E0FBBFEBBFE5BF8DE0A2E016
:10006600BB27ED938A95E9F780E098E0A0E6ED934B
:100076000197E9F7EFE5EDBFE8E0EEBFC0E6D2E0B5
:100086000C943601E0E0EABBEBBBE7BBE8BBEFEF65
:10009600E4BBE0E0E5BBEFEFE1BBE0E0E2BBE3BFE2
:1000A600E2BFECBFEFBDEEBDEDBDECBDE7BDE6BD0D
:1000B600EBBDEABDE9BDE8BDE2BDE5BDE4BDE3BD1E
:1000C600E9BFE5BFE4BFEAB9E0E8E8B9E0E0E0BFD0
:1000D600E6B9EDB9E6BF08950FD149F4A89AA998F3
:1000E600AA98E0E0E0936002E093610215C0E13077
:1000F600A0E0FA0721F4A898A99AAA980DC0E230C0
:10010600A0E0FA0749F4A898A998AA9AE1E0F0E0D5
:10011600E0936002F09361025FC0EED041F4AB9AC7
:10012600AC98AD98E2E6F2E0A0E0B0E013C0E130B2
:10013600A0E0FA0721F4AB98AC9AAD980DC0E23076
:10014600A0E0FA0749F4AB98AC98AD9AE2E6F2E083
:10015600A1E0B0E0A083B1833FC0CED041F4909A35
:1001660091989298E4E6F2E0A0E0B0E013C0E130A6
:10017600A0E0FA0721F49098919A92980DC0E23087
:10018600A0E0FA0749F490989198929AE4E6F2E092
:10019600A1E0B0E0A083B1831FC0AED041F4939A32
:1001A60094989598E6E6F2E0A0E0B0E013C0E1305E
:1001B600A0E0FA0721F49398949A95980DC0E2303E
:1001C600A0E0FA0749F493989498959AE6E6F2E047
:1001D600A1E0B0E0A083B183229608950E94BD01FC
:1001E60000E010E00430E0E01E07A4F4F801A0E609
:1001F600B2E0EE0FFF1FAE0FBF1F0E94B901E13044
:10020600A0E0FA0721F421E030E0A80103C00F5F67
:100216001F4FE8CFE1E0F0E0E217F30701F5FA013E
:10022600309721F4A1E06ED073D019C0E130A0E080
:10023600FA0721F4A1E06FD074D011C0E230A0E03B
:10024600FA0721F4A1E070D075D009C0E330A0E030
:10025600FA0729F4A1E0B0E0A0DF6FD072D00E94C7
:10026600C401269608950EDF53D05BD063D069D0C3
:10027600CC9B1CC0C89905C067D0A2E0B0E02CDFBB
:1002860014C0C99905C060D0A2E0B0E046DF0DC039
:10029600CA9905C059D0A2E0B0E05FDF06C0CB998D
:1002A60004C052D0A2E0B0E078DFE2CF01D0FFCFA9
:1002B6002FD037D03FD045D0CC9B1CC0CC9919C08D
:1002C6003CD0A2E0B0E008DF41D01CD0A2E0B0E014
:1002D60024DF3CD020D0A2E0B0E03FDF37D024D0EE
:1002E600A2E0B0E05ADFA8EBBBE00E94AF0129D044
:1002F600E5CFE2CFB8DF0895BA93AA93E881F981F2
:1003060030970895B0E0E8DEA8EEB3E00C94AF01B4
:10031600A0E0B0E0E1CEB0E000DFA8EEB3E00C94E0
:10032600AF01A0E0B0E0F9CEB0E017DFA8EEB3E091
:100336000C94AF01A0E0B0E010CFA8EEB3E00C94AF
:10034600AF01A0E0B0E029CF49DFF7CFA8EBBBE0D3
:100356000E94AF01A0E00895109639F0A89588EBA9
:100366009BE00197F1F71197C9F70895ED91FC917C
:10037600119708955A934A933A932A931A930A9394
:1003860008955D814C813B812A81198108810895F8
:00000001FF
