:0E0000000C942A000C9400000C9400000C9448
:10000E0000000C9400000C9400000C9400000C9462
:10001E0000000C9400000C9400000C9400000C9452
:10002E0000000C9400000C9400000C9400000C9442
:10003E0000000C9400000C9400000C9400000C9432
:10004E0000000C940000F894EE27ECBBF1E0FBBF2F
:10005E00EBBFE5BF8DE0A2E0BB27ED938A95E9F7F4
:10006E0080E098E0A0E6ED930197E9F7EFE5EDBFAC
:10007E00E8E0EEBFC0E6D2E00C943C01E0E0EABB63
:10008E00EBBBE7BBE8BBEFEFE4BBE0E0E5BBEFEFBC
:10009E00E1BBE0E0E2BBE3BFE2BFECBFEFBDEEBD14
:1000AE00EDBDECBDE7BDE6BDEBBDEABDE9BDE8BD0E
:1000BE00E2BDE5BDE4BDE3BDE9BFE5BFE4BFEAB91E
:1000CE00E0E8E8B9E0E0E0BFE6B9EDB9E6BF0895D3
:1000DE00EED049F4A89AA998AA98E0E0E0936002BD
:1000EE00E093610215C0E130A0E0FA0721F4A89870
:1000FE00A99AAA980DC0E230A0E0FA0749F4A89890
:10010E00A998AA9AE1E0F0E0E0936002F093610210
:10011E005FC0CDD041F4AB9AAC98AD98E2E6F2E078
:10012E00A0E0B0E013C0E130A0E0FA0721F4AB98F4
:10013E00AC9AAD980DC0E230A0E0FA0749F4AB9846
:10014E00AC98AD9AE2E6F2E0A1E0B0E0A083B18314
:10015E003FC0ADD041F4909A91989298E4E6F2E0C7
:10016E00A0E0B0E013C0E130A0E0FA0721F49098CF
:10017E00919A92980DC0E230A0E0FA0749F4909857
:10018E009198929AE4E6F2E0A1E0B0E0A083B18308
:10019E001FC08DD041F4939A94989598E6E6F2E0BC
:1001AE00A0E0B0E013C0E130A0E0FA0721F493988C
:1001BE00949A95980DC0E230A0E0FA0749F493980E
:1001CE009498959AE6E6F2E0A1E0B0E0A083B183C0
:1001DE00229608950E94810100E010E00430E0E0D4
:1001EE001E07A4F4F801A0E6B2E0EE0FFF1FAE0F5B
:1001FE00BF1F0E947D01E130A0E0FA0721F421E04B
:10020E0030E0A80103C00F5F1F4FE8CFE1E0F0E040
:10021E00E217F30731F5FA01309731F4A1E0B0E0BF
:10022E0057DF4BD055DF1DC0E130A0E0FA0731F4A7
:10023E00A1E0B0E06EDF41D06CDF13C0E230A0E091
:10024E00FA0731F4A1E0B0E084DF37D082DF09C0D5
:10025E00E330A0E0FA0729F4A1E0B0E09ADF2DD058
:10026E0098DF0E9488012696089508DFA0E0B0E08E
:10027E002FDFA0E0B0E04DDFA0E0B0E06ADFA0E04D
:10028E00B0E087DFC89903C01FD022DF0EC0C99926
:10029E0003C01AD03EDF09C0CA9903C015D059DF7A
:1002AE0004C0CB9902C010D074DFECCFFFCFBA934D
:1002BE00AA93E881F98130970895A8EEB3E00E94E1
:1002CE007301A0E0B0E0089585DFA8EEB3E00E94D0
:1002DE007301A2E0B0E00895109639F0A89588EB6E
:1002EE009BE00197F1F71197C9F70895ED91FC91F5
:1002FE00119708955A934A933A932A931A930A930D
:10030E0008955D814C813B812A8119810881089570
:00000001FF
